{
  "_format": "hh-sol-artifact-1",
  "contractName": "FHEPlinko",
  "sourceName": "contracts/FHEPlinko.sol",
  "abi": [
    {
      "inputs": [],
      "name": "getBalance",
      "outputs": [
        {
          "internalType": "euint32",
          "name": "",
          "type": "bytes32"
        }
      ],
      "stateMutability": "view",
      "type": "function"
    },
    {
      "inputs": [
        {
          "internalType": "uint256",
          "name": "",
          "type": "uint256"
        }
      ],
      "name": "multipliers",
      "outputs": [
        {
          "internalType": "uint32",
          "name": "",
          "type": "uint32"
        }
      ],
      "stateMutability": "view",
      "type": "function"
    },
    {
      "inputs": [
        {
          "internalType": "externalEuint32",
          "name": "encryptedBet",
          "type": "bytes32"
        },
        {
          "internalType": "bytes",
          "name": "inputProof",
          "type": "bytes"
        }
      ],
      "name": "play",
      "outputs": [],
      "stateMutability": "nonpayable",
      "type": "function"
    }
  ],
  "bytecode": "0x61022060405260016080818152600260a0819052600360c0819052600460e081905260056101008190526006610120819052600a6101405261016052610180526101a0526101c0526101e05261020082905261005d9190600d61022e565b50348015610069575f80fd5b506101e4610108604080516080810182525f808252602082018190529181018290526060810191909152506040805160808101825273687820221192c5b662b25367f70076a37bc79b6c815273848b0066793bcc60346da1f49049357399b8d5956020820152731364cbbf2cdf5032c47d8226a6f6fbd2afcdacac9181019190915273bc91f3dad1a5f19f8390c400196e58073b6a0bc4606082015290565b80517fed8d60e34876f751cc8b014c560745351147d9de11b9347c854e881b128ea60080546001600160a01b03199081166001600160a01b039384161790915560208301517fed8d60e34876f751cc8b014c560745351147d9de11b9347c854e881b128ea6018054831691841691909117905560408301517fed8d60e34876f751cc8b014c560745351147d9de11b9347c854e881b128ea6028054831691841691909117905560608301517fed8d60e34876f751cc8b014c560745351147d9de11b9347c854e881b128ea6038054909216921691909117905550565b7f5ea69329017273582817d320489fbd94f775580e90c092699ca6f3d12fdf7d0080546001600160a01b03191673a02cda4ca3a71d7c46997716f4283aa851c288121790556102da565b6002830191839082156102b6579160200282015f5b8382111561028457835183826101000a81548163ffffffff021916908360ff1602179055509260200192600401602081600301049283019260010302610243565b80156102b45782816101000a81549063ffffffff0219169055600401602081600301049283019260010302610284565b505b506102c29291506102c6565b5090565b5b808211156102c2575f81556001016102c7565b610a9c806102e75f395ff3fe608060405234801561000f575f80fd5b506004361061003f575f3560e01c806312065fe0146100435780638fbe1e0514610065578063ac7fc2631461007a575b5f80fd5b335f908152602081905260409020546040519081526020015b60405180910390f35b61007861007336600461092d565b6100a2565b005b61008d6100883660046109a2565b610227565b60405163ffffffff909116815260200161005c565b5f6100e28484848080601f0160208091040260200160405190810160405280939291908181526020018383808284375f9201919091525061025692505050565b90505f6100ee5f61026c565b90505f5b600c81101561013b575f61010461027e565b90505f61012382610115600161026c565b61011e5f61026c565b61028d565b905061012f84826102a3565b935050506001016100f2565b505f6101465f61026c565b90505f5b600d8110156101c2575f61015d8261026c565b90505f61016a85836102d1565b90505f6101a4600185600d8110610183576101836109b9565b600891828204019190066004029054906101000a900463ffffffff1661026c565b90506101b182828761028d565b9450506001909201915061014a9050565b505f6101ce84836102ff565b335f908152602081905260409020549091506101ea90826102a3565b335f9081526020819052604090208190556102049061032d565b50335f8181526020819052604090205461021d9161033c565b5050505050505050565b600181600d8110610236575f80fd5b60089182820401919006600402915054906101000a900463ffffffff1681565b5f6102638383600461034e565b90505b92915050565b5f6102668263ffffffff16600461046e565b5f6102885f61052b565b905090565b5f6102998484846105de565b90505b9392505050565b5f826102b5576102b25f61026c565b92505b816102c6576102c35f61026c565b91505b61026383835f610687565b5f826102e3576102e05f61026c565b92505b816102f4576102f15f61026c565b91505b61026383835f61076a565b5f826103115761030e5f61026c565b92505b816103225761031f5f61026c565b91505b61026383835f610807565b5f61033882306108a4565b5090565b5f61034783836108a4565b5090919050565b7fed8d60e34876f751cc8b014c560745351147d9de11b9347c854e881b128ea6015460405163196d0b9b60e01b81525f917fed8d60e34876f751cc8b014c560745351147d9de11b9347c854e881b128ea600916001600160a01b039091169063196d0b9b906103c79088903390899089906004016109ed565b6020604051808303815f875af11580156103e3573d5f803e3d5ffd5b505050506040513d601f19601f820116820180604052508101906104079190610a56565b8154604051630f8e573b60e21b8152600481018390523360248201529193506001600160a01b031690633e395cec906044015f604051808303815f87803b158015610450575f80fd5b505af1158015610462573d5f803e3d5ffd5b50505050509392505050565b7fed8d60e34876f751cc8b014c560745351147d9de11b9347c854e881b128ea60154604051639cd07acb60e01b81525f917fed8d60e34876f751cc8b014c560745351147d9de11b9347c854e881b128ea600916001600160a01b0390911690639cd07acb906104e39087908790600401610a6d565b6020604051808303815f875af11580156104ff573d5f803e3d5ffd5b505050506040513d601f19601f820116820180604052508101906105239190610a56565b949350505050565b7fed8d60e34876f751cc8b014c560745351147d9de11b9347c854e881b128ea60154604051636baeb74560e11b81525f917fed8d60e34876f751cc8b014c560745351147d9de11b9347c854e881b128ea600916001600160a01b039091169063d75d6e8a9061059e908690600401610a81565b6020604051808303815f875af11580156105ba573d5f803e3d5ffd5b505050506040513d601f19601f8201168201806040525081019061029c9190610a56565b5f807fed8d60e34876f751cc8b014c560745351147d9de11b9347c854e881b128ea6006001810154604051637702dcff60e01b81526004810188905260248101879052604481018690529192506001600160a01b031690637702dcff906064016020604051808303815f875af115801561065a573d5f803e3d5ffd5b505050506040513d601f19601f8201168201806040525081019061067e9190610a56565b95945050505050565b5f80821561069a5750600160f81b61069d565b505f5b7fed8d60e34876f751cc8b014c560745351147d9de11b9347c854e881b128ea6015460405163022f65e760e31b815260048101879052602481018690526001600160f81b0319831660448201527fed8d60e34876f751cc8b014c560745351147d9de11b9347c854e881b128ea600916001600160a01b03169063117b2f38906064015b6020604051808303815f875af115801561073c573d5f803e3d5ffd5b505050506040513d601f19601f820116820180604052508101906107609190610a56565b9695505050505050565b5f80821561077d5750600160f81b610780565b505f5b7fed8d60e34876f751cc8b014c560745351147d9de11b9347c854e881b128ea6015460405163f77f3f1d60e01b815260048101879052602481018690526001600160f81b0319831660448201527fed8d60e34876f751cc8b014c560745351147d9de11b9347c854e881b128ea600916001600160a01b03169063f77f3f1d90606401610720565b5f80821561081a5750600160f81b61081d565b505f5b7fed8d60e34876f751cc8b014c560745351147d9de11b9347c854e881b128ea60154604051630afe14ad60e31b815260048101879052602481018690526001600160f81b0319831660448201527fed8d60e34876f751cc8b014c560745351147d9de11b9347c854e881b128ea600916001600160a01b0316906357f0a56890606401610720565b5f7fed8d60e34876f751cc8b014c560745351147d9de11b9347c854e881b128ea6008054604051635ca4b5b160e11b8152600481018690526001600160a01b03858116602483015292935091169063b9496b62906044015f604051808303815f87803b158015610912575f80fd5b505af1158015610924573d5f803e3d5ffd5b50505050505050565b5f805f6040848603121561093f575f80fd5b83359250602084013567ffffffffffffffff8082111561095d575f80fd5b818601915086601f830112610970575f80fd5b81358181111561097e575f80fd5b87602082850101111561098f575f80fd5b6020830194508093505050509250925092565b5f602082840312156109b2575f80fd5b5035919050565b634e487b7160e01b5f52603260045260245ffd5b605481106109e957634e487b7160e01b5f52602160045260245ffd5b9052565b8481525f60206001600160a01b03861660208401526080604084015284518060808501525f5b81811015610a2f5786810183015185820160a001528201610a13565b505f60a0828601015260a0601f19601f8301168501019250505061067e60608301846109cd565b5f60208284031215610a66575f80fd5b5051919050565b8281526040810161029c60208301846109cd565b6020810161026682846109cd56fea164736f6c6343000818000a",
  "linkReferences": {},
  "deployedLinkReferences": {}
}